:100000000C9461000C947E000C947E000C947E0095
:100010000C947E000C947E000C947E000C947E0068
:100020000C947E000C947E000C947E000C947E0058
:100030000C947E000C947E000C947E000C947E0048
:100040000C940D020C947E000C947E000C947E00A7
:100050000C947E000C947E000C947E000C947E0028
:100060000C947E000C947E0000000007000201004A
:100070000003040600000000000000000102040864
:100080001020408001020408102001020408102002
:10009000040404040404040402020202020203032E
:1000A00003030303000000002300260029000000D2
:1000B0000000250028002B0000000000240027007D
:1000C0002A0011241FBECFEFD8E0DEBFCDBF11E064
:1000D000A0E0B1E0E2EBFBE002C005900D92A4319C
:1000E000B107D9F721E0A4E1B1E001C01D92AD351F
:1000F000B207E1F70E9418040C9425040C94000048
:10010000CF92DF92EF92FF920F931F93CF93DF93E3
:10011000EC016A012115310531F021303105B9F5C5
:100120008B017C011BC08B017C01C7018C1B9D0BCB
:100130008C159D0564F5F70181917F010E94DB021A
:10014000BC01882777FD8095982F0E94C404F80190
:1001500061937193819391938F01E7CFC7018C1BBA
:100160009D0B8C159D059CF4F70181917F010E94E8
:10017000EF03BC01882777FD8095982F0E94C40467
:10018000F80161937193819391938F01E7CFDF9190
:10019000CF911F910F91FF90EF90DF90CF90089536
:1001A000BF92CF92DF92EF92FF920F931F93CF9364
:1001B000DF93EC018A012115310531F02130310541
:1001C00079F57B016C0117C07B016C01C6018C1BAA
:1001D0009D0B8017910724F5F70161917191819131
:1001E00091917F01F601B1906F010E9491048B2DD6
:1001F0000E94F802EBCFC6018C1B9D0B8017910764
:100200007CF4F70161917191819191917F01F601E7
:10021000B1906F010E9496048B2D0E94B903EBCF21
:10022000DF91CF911F910F91FF90EF90DF90CF90D2
:10023000BF900895CF92DF92EF92FF920F931F939A
:10024000CF93DF9357FF02C04F5F5F4F6A01D59492
:10025000C794EC018B01E12CF12CEC14FD04DCF4CF
:100260002C813D814E815F81688179818A819B816A
:100270000E94290420E030E040E05FE30E94740522
:10028000F80161937193819391938F01FFEFEF1ABE
:10029000FF0A2896E2CFDF91CF911F910F91FF9037
:1002A000EF90DF90CF9008954F925F926F927F9280
:1002B0008F929F92AF92BF92CF92DF92EF92FF9276
:1002C0000F931F93CF93DF937B014A01290121E014
:1002D00030E0A8010E94D000E701A12CB12C6624D7
:1002E00057FC6094762CA016B1066CF5C880D980B6
:1002F000EA80FB80F4012081318142815381C70172
:10030000B6010E948D0418165CF0C301B2010E9470
:10031000C4049B01AC01C701B6010E9429040AC0B4
:10032000C301B2010E94C4049B01AC01C701B60124
:100330000E942804688379838A839B83FFEFAF1A26
:10034000BF0A2496D0CFDF91CF911F910F91FF90DC
:10035000EF90DF90CF90BF90AF909F908F907F9065
:100360006F905F904F900895CF93C0E08C2F90E0F6
:100370002091040130910501821793074CF4FC0190
:10038000E55FFE4F60E080810E948003CF5FEECF8B
:10039000C0E08C2F90E02091020130910301821780
:1003A00093074CF4FC01E95FFE4F61E080810E94FD
:1003B0008003CF5FEECFCF9108950F931F934091AD
:1003C00004015091050120E030E064E371E08BE02E
:1003D00091E00E948000409104015091050164E287
:1003E00071E084E391E00E941A01009102011091F2
:1003F0000301209100013091010144E251E064E1E8
:1004000071E087E091E00E9454016EE170E080E0CD
:1004100090E01F910F910C947A021F920F920FB6E9
:100420000F9211242F933F938F939F93AF93BF937A
:100430008091550190915601A0915701B0915801BA
:100440003091540123E0230F2D3720F40196A11D94
:10045000B11D05C026E8230F0296A11DB11D2093F2
:1004600054018093550190935601A0935701B09386
:1004700058018091590190915A01A0915B01B0916E
:100480005C010196A11DB11D8093590190935A0101
:10049000A0935B01B0935C01BF91AF919F918F914D
:1004A0003F912F910F900FBE0F901F9018953FB75F
:1004B000F8948091590190915A01A0915B01B091FB
:1004C0005C0126B5A89B05C02F3F19F00196A11D20
:1004D000B11D3FBF6627782F892F9A2F620F711D9C
:1004E000811D911D42E0660F771F881F991F4A9555
:1004F000D1F70895CF92DF92EF92FF92CF93DF93DF
:100500006B017C010E945702EB01C114D104E1048C
:10051000F10479F00E9457026C1B7D0B683E73401A
:10052000A0F381E0C81AD108E108F108C851DC4FF6
:10053000ECCFDF91CF91FF90EF90DF90CF900895B7
:10054000789484B5826084BD84B5816084BD85B5AE
:10055000826085BD85B5816085BDEEE6F0E0808175
:1005600081608083E1E8F0E0108280818260808396
:10057000808181608083E0E8F0E080818160808319
:10058000E1EBF0E0808184608083E0EBF0E080814B
:1005900081608083EAE7F0E08081846080838081ED
:1005A0008260808380818160808380818068808395
:1005B0001092C10008958E3008F08E5087702091FF
:1005C000060190E4299F90011124822B80937C00E6
:1005D00080917A00806480937A0080917A0086FD11
:1005E000FCCF809178002091790090E0922B0895C3
:1005F0001F93CF93DF93182FEB0161E00E948003DC
:10060000209711F460E004C0CF3FD10539F461E0D8
:10061000812FDF91CF911F910C94B903E12FF0E06E
:10062000E859FF4FE491E330F9F048F4E130B9F0D4
:10063000E230A1F584B5806284BDC8BD34C0E63027
:10064000E9F0E73019F1E43049F5809180008062EB
:1006500080938000D0938B00C0938A0024C084B51F
:10066000806884BDC7BD1FC0809180008068809372
:100670008000D0938900C093880015C08091B0009D
:1006800080688093B000C093B3000DC08091B0002B
:1006900080628093B000C093B40005C0C038D1051B
:1006A0000CF0B5CFAFCFDF91CF911F91089583307C
:1006B00081F028F4813099F08230A1F008958630DD
:1006C000A9F08730B9F08430D1F4809180008F7D1B
:1006D00003C0809180008F7780938000089584B557
:1006E0008F7702C084B58F7D84BD08958091B0005E
:1006F0008F7703C08091B0008F7D8093B000089504
:10070000CF93DF9390E0FC01E458FF4F2491FC016C
:10071000E057FF4F8491882349F190E0880F991F9B
:10072000FC01E854FF4FA591B49182559F4FFC0105
:10073000C591D4919FB7611108C0F8948C91209510
:1007400082238C93888182230AC0623051F4F8940A
:100750008C91322F309583238C938881822B8883D0
:1007600004C0F8948C91822B8C939FBFDF91CF9122
:1007700008950F931F93CF93DF931F92CDB7DEB7EA
:10078000282F30E0F901E859FF4F8491F901E4582E
:10079000FF4F1491F901E057FF4F04910023C9F076
:1007A000882321F069830E9457036981E02FF0E0DC
:1007B000EE0FFF1FE255FF4FA591B4919FB7F8943C
:1007C0008C91611103C01095812301C0812B8C9302
:1007D0009FBF0F90DF91CF911F910F910895CF93FD
:1007E000DF93282F30E0F901E859FF4F8491F90198
:1007F000E458FF4FD491F901E057FF4FC491CC2347
:1008000091F081110E945703EC2FF0E0EE0FFF1FD3
:10081000EC55FF4FA591B4912C912D2381E090E0F0
:1008200021F480E002C080E090E0DF91CF91089554
:100830000E94A0020E94B401C0E0D0E00E94DD014D
:100840002097E1F30E940000F9CFF8940C94D705AB
:100850005058BB27AA270ED00DC1FED030F003D1CF
:1008600020F031F49F3F11F41EF4F3C00EF4E09534
:10087000E7FBE9C0E92F0FD180F3BA1762077307CE
:100880008407950718F071F49EF527C10EF4E095E2
:100890000B2EBA2FA02D0B01B90190010C01CA013A
:1008A000A0011124FF27591B99F0593F50F4503EE5
:1008B00068F11A16F040A22F232F342F4427585FD7
:1008C000F3CF469537952795A795F0405395C9F7EF
:1008D0007EF41F16BA0B620B730B840BBAF09150A7
:1008E000A1F0FF0FBB1F661F771F881FC2F70EC046
:1008F000BA0F621F731F841F48F487957795679519
:10090000B795F7959E3F08F0B3CF9395880F08F001
:100910009927EE0F97958795089571D008F481E097
:10092000089504D06894B111D9C00895BCD088F05E
:100930009F5790F0B92F9927B751A0F0D1F0660FCB
:10094000771F881F991F1AF0BA95C9F712C0B130E6
:1009500081F0C3D0B1E00895C0C0672F782F8827F9
:10096000B85F39F0B93FCCF3869577956795B39525
:10097000D9F73EF490958095709561957F4F8F4F94
:100980009F4F0895E89409C097FB3EF49095809599
:10099000709561957F4F8F4F9F4F9923A9F0F92F45
:1009A00096E9BB279395F695879577956795B795C3
:1009B000F111F8CFFAF4BB0F11F460FF1BC06F5FA9
:1009C0007F4F8F4F9F4F16C0882311F096E911C0BB
:1009D000772321F09EE8872F762F05C0662371F0DC
:1009E00096E8862F70E060E02AF09A95660F771FF0
:1009F000881FDAF7880F9695879597F90895990FCC
:100A00000008550FAA0BE0E8FEEF16161706E807D8
:100A1000F907C0F012161306E407F50798F0621BF9
:100A2000730B840B950B39F40A2661F0232B242BCE
:100A3000252B21F408950A2609F4A140A6958FEFED
:100A4000811D811D089597F99F6780E870E060E03F
:100A500008959FEF80EC089500240A941616170657
:100A600018060906089500240A941216130614069F
:100A700005060895092E0394000C11F4882352F002
:100A8000BB0F40F4BF2B11F460FF04C06F5F7F4FBA
:100A90008F4F9F4F089557FD9058440F551F59F0A1
:100AA0005F3F71F04795880F97FB991F61F09F3F5B
:100AB00079F087950895121613061406551FF2CF84
:100AC0004695F1DF08C0161617061806991FF1CFD4
:100AD00086957105610508940895E894BB276627FB
:100AE0007727CB0197F908950BD0C4CFB5DF28F055
:100AF000BADF18F0952309F0A6CFABCF1124EECFC3
:100B0000CADFA0F3959FD1F3950F50E0551F629F68
:100B1000F001729FBB27F00DB11D639FAA27F00D56
:100B2000B11DAA1F649F6627B00DA11D661F829F7D
:100B30002227B00DA11D621F739FB00DA11D621F62
:100B4000839FA00D611D221F749F3327A00D611D7F
:100B5000231F849F600D211D822F762F6A2F112461
:100B60009F5750408AF0E1F088234AF0EE0FFF1FB4
:100B7000BB1F661F771F881F91505040A9F79E3FEB
:100B8000510570F060CFAACF5F3FECF3983EDCF3E5
:100B9000869577956795B795F795E7959F5FC1F728
:100BA000FE2B880F911D9695879597F90895F894D7
:020BB000FFCF75
:100BB200050004000800013435363701020304053C
:040BC200060708001A
:00000001FF
